:020000020000FC
:04000000B0C228C39F
:02001C001FC300
:02001200C5C265
:1002000001020304020406080306090C04080C108A
:080210000C0B0A0904040403AD
:10040000649F8001749F100D569F100D0895222443
:10041000759F9001649F8001749F100D211D321DF6
:10042000569F100D211D321D089522247502900142
:10043000649F800174033209100D211D321D560383
:100440003209100D211D321D089522247502200D40
:10045000311D649F000D111D221D321D74033209D0
:10046000100D211D321D56033209100D211D321DA4
:100470000895222475022001649F000D111D241D82
:10048000351D74033209100D211D321D560332092A
:10049000100D211D321D08952224F50390016C03D7
:1004A000221D8001FC033209100D211D321DDE03C7
:1004B0003209100D211D321D08952224F503200D4F
:1004C000311D6C03221D321D000D111D221D321D18
:1004D000FC033209100D211D321DDE033209100DFF
:1004E000211D321D08952224F50320016C03421CB6
:1004F000000D111D241D351DFC033209100D211D99
:10050000321DDE033209100D211D321D0895002712
:100510001127221B99E1661F771F881F9A9509F4FE
:100520000895001F111F221F031B140B250B28F415
:10053000030F141F251F8894EECF0894ECCF089565
:10054000441B79E0551F7A9509F40895441F461B12
:1005500018F4460F8894F6CF0894F4CFD8DFF0DF74
:1005600008950FE50DBF04E00EBF929ABE9A00E415
:100570000BBF02E005BF01E007B90CEE06B9A19878
:1005800002E003BF01E009BF04E402BF01E0009301
:10059000670078948B9A939A09D09398FBCF8C9AA2
:1005A000949A789404E402BF9498189564B110E288
:1005B000611B39E08827772755274427A8DF35E0D6
:1005C000639F602D6F9364B148EE53E077271FDF80
:1005D00036E144E85527822F712F602F98DF762F60
:1005E0006F9108958F9A979A0F93F2E0E0E024B10B
:1005F00035B1442727FD426026FD416054E0459F08
:10060000502D442725FD426024FD4160540FE50F25
:100610006491F2E0E0E1442723FD426022FD416065
:10062000E40F7491F2E0E4E1442721FD426020FDF3
:100630004160E40F8491769F702D879F712D602D0E
:1006400038E288275527442762DF609368000F91BE
:10065000979808950F9301E00F9118958E9A969AA6
:1006600064B175B1442771FD486070FD446067FD59
:10067000426066FD4160443010F4C69A1895C698F1
:100680001895969818958D9A959A0F93559F512D78
:10069000402DBDDE822F712F602F32E050E040E010
:0E06A00022271127002733DF0F919598189518
:00000001FF
