:020000020000FC
:04000000B0C205C3C2
:0200120003C326
:1002000001020304020406080306090C04080C108A
:10040000649F8001749F100D569F100D0895222443
:10041000759F9001649F8001749F100D211D321DF6
:10042000569F100D211D321D089522247502900142
:10043000649F800174033209100D211D321D560383
:100440003209100D211D321D089522247502200D40
:10045000311D649F000D111D221D321D74033209D0
:10046000100D211D321D56033209100D211D321DA4
:100470000895222475022001649F000D111D241D82
:10048000351D74033209100D211D321D560332092A
:10049000100D211D321D08952224F50390016C03D7
:1004A000221D8001FC033209100D211D321DDE03C7
:1004B0003209100D211D321D08952224F503200D4F
:1004C000311D6C03221D321D000D111D221D321D18
:1004D000FC033209100D211D321DDE033209100DFF
:1004E000211D321D08952224F50320016C03421CB6
:1004F000000D111D241D351DFC033209100D211D99
:10050000321DDE033209100D211D321D0895002712
:100510001127221B99E1661F771F881F9A9509F4FE
:100520000895001F111F221F031B140B250B28F415
:10053000030F141F251F8894EECF0894ECCF089565
:10054000441B79E0551F7A9509F40895441F461B12
:1005500018F4460F8894F6CF0894F4CFD8DFF0DF74
:1005600008950FE50DBF04E00EBF929A00E40BBFA3
:1005700002E005BF01E007B904EE06B9A19802E068
:1005800003BF01E009BF04E402BFD2E0C0E000E025
:100590000093670001E00093680078948B9A939A27
:1005A0009398FCCF8D9A959A0F9360EB74E05CE181
:1005B000559F512D402D2BDF822F712F602F32E060
:1005C00050E040E0222711270027A1DF0F919598E6
:1005D00018958E9A969AC2DF969808958F9A979A50
:1005E0000F9315B104B1EC2FFD2F212F45E0249F6F
:1005F000202D41E063E0641B260FE20F249141E0CF
:10060000249F502D62E09CDF0F91979808950F93DF
:1006100001E0009367000F9118958C9A949A789452
:1006200004E402BF00916800033011F4D7DF002713
:1006300003950093680000916700013021F4B2DF58
:0C064000002700936700C5DF9498189510
:00000001FF
