:020000020000FC
:04000000B0C2E3C3E4
:02001C0004C41A
:02001200D2C258
:02001000FFC22D
:1002000001020304020406080306090C04080C108A
:080210000C0B0A0904040403AD
:10040000649F8001749F100D569F100D0895222443
:10041000759F9001649F8001749F100D211D321DF6
:10042000569F100D211D321D089522247502900142
:10043000649F800174033209100D211D321D560383
:100440003209100D211D321D089522247502200D40
:10045000311D649F000D111D221D321D74033209D0
:10046000100D211D321D56033209100D211D321DA4
:100470000895222475022001649F000D111D241D82
:10048000351D74033209100D211D321D560332092A
:10049000100D211D321D08952224F50390016C03D7
:1004A000221D8001FC033209100D211D321DDE03C7
:1004B0003209100D211D321D08952224F503200D4F
:1004C000311D6C03221D321D000D111D221D321D18
:1004D000FC033209100D211D321DDE033209100DFF
:1004E000211D321D08952224F50320016C03421CB6
:1004F000000D111D241D351DFC033209100D211D99
:10050000321DDE033209100D211D321D0895002712
:100510001127221B99E1661F771F881F9A9509F4FE
:100520000895001F111F221F031B140B250B28F415
:10053000030F141F251F8894EECF0894ECCF089565
:10054000441B79E0551F7A9509F40895441F461B12
:1005500018F4460F8894F6CF0894F4CFD8DFF0DF74
:1005600008950FE50DBF04E00EBFB89ABA9ABC9A81
:10057000B99A0FEF02BB002701BBC29AC49AC19A75
:10058000C09A00EC0BBF0AE005BF01E007B90CEE12
:1005900006B903E003BF00E802BF02E00EBD0EEEA5
:1005A0000CBD05E80DBD05E009BF01E00093680042
:1005B000009367007894FFCF8F937F936F935F933F
:1005C0004F933F932F931F930F931F920F920FB749
:1005D0000F93789400E802BF5ED1009168001091FB
:1005E0006700011719F496D000271127039500938F
:1005F000680074D00F910FBF0F901F900F911F9143
:100600002F913F914F915F916F917F918F911895AD
:100610008F937F936F935F934F933F932F931F938A
:100620000F931F920F920FB70F9378940EEE0CBD9D
:1006300005E80DBDC19B12C081991FC000916900E2
:1006400010916A00012B00FF05C0C19800E00093E3
:100650006A0013C001E000936A000FC000916900B6
:1006600010916B00012B00FF05C0C19A00E00093C0
:100670006B0003C001E000936B00C09B12C0809927
:100680001FC000916C0010916D00012B00FF05C090
:10069000C09800E000936D0013C001E000936D006E
:1006A0000FC000916C0010916E00012B00FF05C07F
:1006B000C09A00E000936E0003C001E000936E005A
:1006C0000F910FBF0F901F900F911F912F913F918E
:1006D0004F915F916F917F918F91189564B110E266
:1006E000611B39E0882777275527442710DF35E03D
:1006F000639F602D6F9364B148EE53E0772787DEE8
:1007000036E144E85527822F712F602F00DF762FC6
:100710006F9108958F937F936F935F934F933F9360
:100720002F931F930F931F920F920FB70F9301E018
:1007300000937100F2E0E0E024B135B1442727FDD9
:10074000426026FD416054E0459F502D442725FD21
:10075000426024FD4160540FE50F6491F2E0E0E156
:10076000442723FD426022FD4160E40F7491F2E0D2
:10077000E4E1442721FD426020FD4160E40F8491C3
:10078000769F702D879F712D602D38E28827552721
:100790004427BDDE32E0BBDE60936700603009F0C5
:1007A00003C061E06093670000E0009371000F9167
:1007B0000FBF0F901F900F911F912F913F914F915D
:1007C0005F916F917F918F9108958F937F936F9336
:1007D0005F934F933F932F931F930F931F920F920B
:1007E0000FB70F937894C2990FC0C29A0F910FBFA1
:1007F0000F901F900F911F912F913F914F915F91FB
:100800006F917F918F911895C2980F910FBF0F90A4
:100810001F900F911F912F913F914F915F916F9179
:100820007F918F9118958F937F936F935F934F93E1
:100830003F932F931F930F931F920F920FB70F9316
:1008400064B175B1442771FD486070FD446067FD77
:10085000426066FD4160443078F4C49A0F910FBF46
:100860000F901F900F911F912F913F914F915F918A
:100870006F917F918F911895C4980F910FBF0F9032
:100880001F900F911F912F913F914F915F916F9109
:100890007F918F9118958F937F936F935F934F9371
:1008A0003F932F931F930F931F920F920FB70F93A6
:1008B00000916F00013031F4859B0AC000E0009385
:1008C0006F0006C0859904C02ED001E000936F0030
:1008D00000917000013099F4849B17C000E00093F0
:1008E00070000F910FBF0F901F900F911F912F91CC
:1008F0003F914F915F916F917F918F91189584995E
:1009000004C01DD001E0009370000F910FBF0F9045
:100910001F900F911F912F913F914F915F916F9178
:100920007F918F91189500916900013021F001E0CD
:1009300000936900089500E0009369000895009114
:100940006C00013021F001E000936C00089500E09C
:0609500000936C00089505
:00000001FF
