:020000020000FC
:06000000B0C2C3C3FEC341
:02001C00CFC350
:02001200D7C253
:02001000E7C245
:1002000001020304020406080306090C04080C108A
:080210000C0B0A0904040403AD
:10040000649F8001749F100D569F100D0895222443
:10041000759F9001649F8001749F100D211D321DF6
:10042000569F100D211D321D089522247502900142
:10043000649F800174033209100D211D321D560383
:100440003209100D211D321D089522247502200D40
:10045000311D649F000D111D221D321D74033209D0
:10046000100D211D321D56033209100D211D321DA4
:100470000895222475022001649F000D111D241D82
:10048000351D74033209100D211D321D560332092A
:10049000100D211D321D08952224F50390016C03D7
:1004A000221D8001FC033209100D211D321DDE03C7
:1004B0003209100D211D321D08952224F503200D4F
:1004C000311D6C03221D321D000D111D221D321D18
:1004D000FC033209100D211D321DDE033209100DFF
:1004E000211D321D08952224F50320016C03421CB6
:1004F000000D111D241D351DFC033209100D211D99
:10050000321DDE033209100D211D321D0895002712
:100510001127221B99E1661F771F881F9A9509F4FE
:100520000895001F111F221F031B140B250B28F415
:10053000030F141F251F8894EECF0894ECCF089565
:10054000441B79E0551F7A9509F40895441F461B12
:1005500018F4460F8894F6CF0894F4CFD8DFF0DF74
:1005600008950FE50DBF04E00EBFB89ABA9ABC9A81
:10057000BF9A0FEF02BB002701BBC29AC49AC79A69
:10058000C09A00EC0BBF0AE005BF01E007B90CEE12
:1005900006B902E003BF04E402BF02E00EBD0EEEA6
:1005A0000CBD05E80DBD05E009BF01E00093720038
:1005B0000093670000E00093700000936E00789451
:1005C000FFCF78940091720010916700011719F421
:1005D00087D00027112703950093720065D01895E6
:1005E0000F9300916E0011E0011304C001E000932D
:1005F0006F001895789400E000936F0001E000937D
:1006000071000EEE0CBD05E80DBDC79B12C08799A9
:100610001FC00091680010916900012B00FF05C008
:10062000C79800E00093690013C001E000936900DF
:100630000FC00091680010916A00012B00FF05C0F7
:10064000C79A00E000936A0003C001E000936A00CB
:10065000C09B12C08099189500916B0010916C009E
:10066000012B00FF05C0C09800E000936C0013C090
:1006700001E000936C000FC000916B0010916D00C1
:10068000012B00FF05C0C09A00E000936D0003C07D
:1006900001E000936D000091700000FD84D0009196
:1006A000000000937000189564B110E2611B39E0FE
:1006B00088277727552744272ADF35E0639F602D59
:1006C0006F9364B148EE53E07727A1DE36E144E84A
:1006D0005527822F712F602F1ADF762F6F91089583
:1006E0000F9301E000936E007894F2E0E0E024B113
:1006F00035B1442727FD426026FD416054E0459F07
:10070000502D442725FD426024FD4160540FE50F24
:100710006491F2E0E0E1442723FD426022FD416064
:10072000E40F7491F2E0E4E1442721FD426020FDF2
:100730004160E40F8491769F702D879F712D602D0D
:1007400038E2882755274427E2DE32E0E0DE609376
:1007500067000F91603009F003C061E060936700AB
:1007600000E000936E0000916F0000FD39DF009102
:10077000000000936F000091700000FD14D0009104
:100780000000009370000F9108950F931F93009144
:100790006E0010917100012B11E0011304C001E003
:1007A00000937000189500E0009370007894C2994F
:1007B00002C0C29A1895C2980F91189564B175B18C
:1007C000442771FD486070FD446067FD426066FD2E
:1007D0004160443010F4C49A1895C498189518953F
:1007E0000F93559F512D402D12DE822F712F602FB8
:1007F00032E050E040E022271127002788DE0F91E9
:1008000018950F9301E0859B04D0849B0ED00F9127
:10081000189500916800013021F001E00093680014
:10082000089500E000936800089500916B00013086
:1008300021F001E000936B00089500E000936B004D
:02084000089519
:00000001FF
